{
  "contractName": "ValidLib",
  "abi": [
    {
      "constant": true,
      "inputs": [
        {
          "internalType": "string",
          "name": "str",
          "type": "string"
        }
      ],
      "name": "isEmptyOfStr",
      "outputs": [
        {
          "internalType": "bool",
          "name": "res",
          "type": "bool"
        }
      ],
      "payable": false,
      "stateMutability": "pure",
      "type": "function"
    },
    {
      "constant": true,
      "inputs": [
        {
          "internalType": "address",
          "name": "_address",
          "type": "address"
        }
      ],
      "name": "isVoidAddress",
      "outputs": [
        {
          "internalType": "bool",
          "name": "res",
          "type": "bool"
        }
      ],
      "payable": false,
      "stateMutability": "pure",
      "type": "function"
    },
    {
      "constant": true,
      "inputs": [
        {
          "internalType": "uint256",
          "name": "id",
          "type": "uint256"
        },
        {
          "internalType": "uint256",
          "name": "imgCount",
          "type": "uint256"
        }
      ],
      "name": "isVaildIdOfImg",
      "outputs": [
        {
          "internalType": "bool",
          "name": "res",
          "type": "bool"
        }
      ],
      "payable": false,
      "stateMutability": "pure",
      "type": "function"
    }
  ],
  "bytecode": "0x610284610026600b82828239805160001a60731461001957fe5b30600052607381538281f3fe730000000000000000000000000000000000000000301460806040526004361061004b5760003560e01c8063193480c61461005057806323e7564714610123578063c3299f591461017f575b600080fd5b6101096004803603602081101561006657600080fd5b810190808035906020019064010000000081111561008357600080fd5b82018360208201111561009557600080fd5b803590602001918460018302840111640100000000831117156100b757600080fd5b91908080601f016020809104026020016040519081016040528093929190818152602001838380828437600081840152601f19601f8201169050808301925050505050505091929192905050506101cf565b604051808215151515815260200191505060405180910390f35b6101656004803603602081101561013957600080fd5b81019080803573ffffffffffffffffffffffffffffffffffffffff1690602001909291905050506101e7565b604051808215151515815260200191505060405180910390f35b6101b56004803603604081101561019557600080fd5b81019080803590602001909291908035906020019092919050505061022b565b604051808215151515815260200191505060405180910390f35b6000808251116101de57600080fd5b60019050919050565b60008073ffffffffffffffffffffffffffffffffffffffff168273ffffffffffffffffffffffffffffffffffffffff16141561022257600080fd5b60019050919050565b6000808311801561023c5750818311155b61024557600080fd5b600190509291505056fea265627a7a723158201ed0caf9a794d58af470c547fa14cd3a82fcd7a9c769f973218748ca8b6115da64736f6c63430005100032",
  "source": "pragma solidity >=0.4.25;\n\nlibrary ValidLib {\n    function isEmptyOfStr(string memory str) public pure returns (bool res) {\n        require(bytes(str).length > 0);\n        return true;\n    }\n\n    function isVoidAddress(address _address) public pure returns (bool res) {\n        require(_address != address(0x0));\n        return true;\n    }\n\n    function isVaildIdOfImg(uint256 id, uint256 imgCount)\n        public\n        pure\n        returns (bool res)\n    {\n        require(id > 0 && id <= imgCount);\n        return true;\n    }\n}\n",
  "sourcePath": "/home/sam/Documents/dappgram/contracts/ValidLib.sol",
  "compiler": {
    "name": "solc",
    "version": "0.5.16+commit.9c3226ce.Emscripten.clang"
  },
  "schemaVersion": "3.4.1",
  "updatedAt": "2021-06-26T04:40:30.230Z",
  "devdoc": {
    "methods": {}
  },
  "userdoc": {
    "methods": {}
  }
}